{
  "contractName": "VotingApp",
  "abi": [
    {
      "inputs": [
        {
          "name": "_amountOfVotesForEnd",
          "type": "uint256"
        },
        {
          "name": "_candidatesAmount",
          "type": "uint256"
        }
      ],
      "payable": false,
      "stateMutability": "nonpayable",
      "type": "constructor",
      "signature": "constructor"
    },
    {
      "constant": false,
      "inputs": [],
      "name": "becomeCandidate",
      "outputs": [
        {
          "name": "",
          "type": "bool"
        }
      ],
      "payable": false,
      "stateMutability": "nonpayable",
      "type": "function",
      "signature": "0x2f41e443"
    },
    {
      "constant": true,
      "inputs": [],
      "name": "getCandidates",
      "outputs": [
        {
          "name": "",
          "type": "address[]"
        }
      ],
      "payable": false,
      "stateMutability": "view",
      "type": "function",
      "signature": "0x06a49fce"
    },
    {
      "constant": false,
      "inputs": [],
      "name": "becomeVoter",
      "outputs": [
        {
          "name": "",
          "type": "bool"
        }
      ],
      "payable": false,
      "stateMutability": "nonpayable",
      "type": "function",
      "signature": "0x63d494ea"
    },
    {
      "constant": true,
      "inputs": [],
      "name": "getVotesAmount",
      "outputs": [
        {
          "name": "",
          "type": "uint256"
        }
      ],
      "payable": false,
      "stateMutability": "view",
      "type": "function",
      "signature": "0x9009aa48"
    },
    {
      "constant": false,
      "inputs": [
        {
          "name": "_candidate",
          "type": "address"
        }
      ],
      "name": "voteForCandidate",
      "outputs": [
        {
          "name": "",
          "type": "bool"
        }
      ],
      "payable": false,
      "stateMutability": "nonpayable",
      "type": "function",
      "signature": "0x163046eb"
    },
    {
      "constant": true,
      "inputs": [
        {
          "name": "_candidate",
          "type": "address"
        }
      ],
      "name": "getVotesForCandidates",
      "outputs": [
        {
          "name": "",
          "type": "uint256"
        }
      ],
      "payable": false,
      "stateMutability": "view",
      "type": "function",
      "signature": "0xcf696c59"
    },
    {
      "constant": true,
      "inputs": [],
      "name": "checkRole",
      "outputs": [
        {
          "name": "",
          "type": "string"
        }
      ],
      "payable": false,
      "stateMutability": "view",
      "type": "function",
      "signature": "0x0482aa82"
    },
    {
      "constant": true,
      "inputs": [],
      "name": "getVotedCandidate",
      "outputs": [
        {
          "name": "",
          "type": "address"
        }
      ],
      "payable": false,
      "stateMutability": "view",
      "type": "function",
      "signature": "0x72210f88"
    },
    {
      "constant": true,
      "inputs": [],
      "name": "isVotingEnded",
      "outputs": [
        {
          "name": "",
          "type": "bool"
        }
      ],
      "payable": false,
      "stateMutability": "view",
      "type": "function",
      "signature": "0xc857ecbe"
    },
    {
      "constant": true,
      "inputs": [],
      "name": "isCondidatesFullfilled",
      "outputs": [
        {
          "name": "",
          "type": "bool"
        }
      ],
      "payable": false,
      "stateMutability": "view",
      "type": "function",
      "signature": "0x31163581"
    },
    {
      "constant": true,
      "inputs": [],
      "name": "getVotingResult",
      "outputs": [
        {
          "name": "",
          "type": "address[]"
        },
        {
          "name": "",
          "type": "uint256[]"
        }
      ],
      "payable": false,
      "stateMutability": "view",
      "type": "function",
      "signature": "0x671d2b75"
    }
  ],
  "bytecode": "0x608060405234801561001057600080fd5b50604051604080610faf8339810180604052604081101561003057600080fd5b81019080805190602001909291908051906020019092919050505081600481905550806005819055505050610f458061006a6000396000f3fe6080604052600436106100af576000357c0100000000000000000000000000000000000000000000000000000000900463ffffffff1680630482aa82146100b457806306a49fce14610144578063163046eb146101b05780632f41e44314610219578063311635811461024857806363d494ea14610277578063671d2b75146102a657806372210f881461035a5780639009aa48146103b1578063c857ecbe146103dc578063cf696c591461040b575b600080fd5b3480156100c057600080fd5b506100c9610470565b6040518080602001828103825283818151815260200191508051906020019080838360005b838110156101095780820151818401526020810190506100ee565b50505050905090810190601f1680156101365780820380516001836020036101000a031916815260200191505b509250505060405180910390f35b34801561015057600080fd5b506101596105d1565b6040518080602001828103825283818151815260200191508051906020019060200280838360005b8381101561019c578082015181840152602081019050610181565b505050509050019250505060405180910390f35b3480156101bc57600080fd5b506101ff600480360360208110156101d357600080fd5b81019080803573ffffffffffffffffffffffffffffffffffffffff16906020019092919050505061065f565b604051808215151515815260200191505060405180910390f35b34801561022557600080fd5b5061022e61086e565b604051808215151515815260200191505060405180910390f35b34801561025457600080fd5b5061025d610a00565b604051808215151515815260200191505060405180910390f35b34801561028357600080fd5b5061028c610a22565b604051808215151515815260200191505060405180910390f35b3480156102b257600080fd5b506102bb610ba0565b604051808060200180602001838103835285818151815260200191508051906020019060200280838360005b838110156103025780820151818401526020810190506102e7565b50505050905001838103825284818151815260200191508051906020019060200280838360005b83811015610344578082015181840152602081019050610329565b5050505090500194505050505060405180910390f35b34801561036657600080fd5b5061036f610d39565b604051808273ffffffffffffffffffffffffffffffffffffffff1673ffffffffffffffffffffffffffffffffffffffff16815260200191505060405180910390f35b3480156103bd57600080fd5b506103c6610dfe565b6040518082815260200191505060405180910390f35b3480156103e857600080fd5b506103f1610ea1565b604051808215151515815260200191505060405180910390f35b34801561041757600080fd5b5061045a6004803603602081101561042e57600080fd5b81019080803573ffffffffffffffffffffffffffffffffffffffff169060200190929190505050610ebe565b6040518082815260200191505060405180910390f35b6060600260003373ffffffffffffffffffffffffffffffffffffffff1673ffffffffffffffffffffffffffffffffffffffff16815260200190815260200160002060000160009054906101000a900460ff1615610504576040805190810160405280600581526020017f766f74657200000000000000000000000000000000000000000000000000000081525090506105ce565b6000803373ffffffffffffffffffffffffffffffffffffffff1673ffffffffffffffffffffffffffffffffffffffff16815260200190815260200160002060000160009054906101000a900460ff1615610595576040805190810160405280600981526020017f63616e646964617465000000000000000000000000000000000000000000000081525090506105ce565b6040805190810160405280600481526020017f6e756c6c0000000000000000000000000000000000000000000000000000000081525090505b90565b6060600180548060200260200160405190810160405280929190818152602001828054801561065557602002820191906000526020600020905b8160009054906101000a900473ffffffffffffffffffffffffffffffffffffffff1673ffffffffffffffffffffffffffffffffffffffff168152602001906001019080831161060b575b5050505050905090565b600060055460018054905014151561067657600080fd5b600260003373ffffffffffffffffffffffffffffffffffffffff1673ffffffffffffffffffffffffffffffffffffffff16815260200190815260200160002060000160009054906101000a900460ff1615156106d157600080fd5b600060045414806107715750600073ffffffffffffffffffffffffffffffffffffffff16600260003373ffffffffffffffffffffffffffffffffffffffff1673ffffffffffffffffffffffffffffffffffffffff16815260200190815260200160002060000160019054906101000a900473ffffffffffffffffffffffffffffffffffffffff1673ffffffffffffffffffffffffffffffffffffffff1614155b1561077f5760009050610869565b81600260003373ffffffffffffffffffffffffffffffffffffffff1673ffffffffffffffffffffffffffffffffffffffff16815260200190815260200160002060000160016101000a81548173ffffffffffffffffffffffffffffffffffffffff021916908373ffffffffffffffffffffffffffffffffffffffff1602179055506000808373ffffffffffffffffffffffffffffffffffffffff1673ffffffffffffffffffffffffffffffffffffffff1681526020019081526020016000206001016000815480929190600101919050555060046000815480929190600190039190505550600190505b919050565b6000600260003373ffffffffffffffffffffffffffffffffffffffff1673ffffffffffffffffffffffffffffffffffffffff16815260200190815260200160002060000160009054906101000a900460ff1615801561091957506000803373ffffffffffffffffffffffffffffffffffffffff1673ffffffffffffffffffffffffffffffffffffffff16815260200190815260200160002060000160009054906101000a900460ff16155b151561092457600080fd5b60055460018054905010151561093957600080fd5b60013390806001815401808255809150509060018203906000526020600020016000909192909190916101000a81548173ffffffffffffffffffffffffffffffffffffffff021916908373ffffffffffffffffffffffffffffffffffffffff1602179055505060016000803373ffffffffffffffffffffffffffffffffffffffff1673ffffffffffffffffffffffffffffffffffffffff16815260200190815260200160002060000160006101000a81548160ff0219169083151502179055506001905090565b60006005546001805490501415610a1a5760019050610a1f565b600090505b90565b6000600260003373ffffffffffffffffffffffffffffffffffffffff1673ffffffffffffffffffffffffffffffffffffffff16815260200190815260200160002060000160009054906101000a900460ff16158015610acd57506000803373ffffffffffffffffffffffffffffffffffffffff1673ffffffffffffffffffffffffffffffffffffffff16815260200190815260200160002060000160009054906101000a900460ff16155b1515610ad857600080fd5b60033390806001815401808255809150509060018203906000526020600020016000909192909190916101000a81548173ffffffffffffffffffffffffffffffffffffffff021916908373ffffffffffffffffffffffffffffffffffffffff160217905550506001600260003373ffffffffffffffffffffffffffffffffffffffff1673ffffffffffffffffffffffffffffffffffffffff16815260200190815260200160002060000160006101000a81548160ff0219169083151502179055506001905090565b6060806000600454141515610bb457600080fd5b6060600180549050604051908082528060200260200182016040528015610bea5781602001602082028038833980820191505090505b50905060008090505b600180549050811015610ca457600080600183815481101515610c1257fe5b9060005260206000200160009054906101000a900473ffffffffffffffffffffffffffffffffffffffff1673ffffffffffffffffffffffffffffffffffffffff1673ffffffffffffffffffffffffffffffffffffffff168152602001908152602001600020600101548282815181101515610c8957fe5b90602001906020020181815250508080600101915050610bf3565b5060018181805480602002602001604051908101604052809291908181526020018280548015610d2957602002820191906000526020600020905b8160009054906101000a900473ffffffffffffffffffffffffffffffffffffffff1673ffffffffffffffffffffffffffffffffffffffff1681526020019060010190808311610cdf575b5050505050915092509250509091565b6000600260003373ffffffffffffffffffffffffffffffffffffffff1673ffffffffffffffffffffffffffffffffffffffff16815260200190815260200160002060000160009054906101000a900460ff161515610d9657600080fd5b600260003373ffffffffffffffffffffffffffffffffffffffff1673ffffffffffffffffffffffffffffffffffffffff16815260200190815260200160002060000160019054906101000a900473ffffffffffffffffffffffffffffffffffffffff16905090565b60008060003373ffffffffffffffffffffffffffffffffffffffff1673ffffffffffffffffffffffffffffffffffffffff16815260200190815260200160002060000160009054906101000a900460ff161515610e5a57600080fd5b6000803373ffffffffffffffffffffffffffffffffffffffff1673ffffffffffffffffffffffffffffffffffffffff16815260200190815260200160002060010154905090565b6000806004541415610eb65760019050610ebb565b600090505b90565b600080600454141515610ed057600080fd5b6000808373ffffffffffffffffffffffffffffffffffffffff1673ffffffffffffffffffffffffffffffffffffffff16815260200190815260200160002060010154905091905056fea165627a7a72305820495862c55bd84b772bb4c7a46ea947370fc3b7c69553914e3b309864a4b1ca1c0029",
  "source": "pragma solidity ^0.5.0;\n\ncontract VotingApp {\n    struct Candidate {\n        bool isExist;\n        uint votes;\n    }\n\n    struct Voter {\n        bool isExist;\n        address candidate;\n    }\n\n    mapping (address => Candidate) candidates;\n    address[] candidatesAddresses;\n    mapping (address => Voter) voters;\n    address[] votersAddresses;\n    uint amountOfVotesForEnd;\n    uint candidatesAmount;\n\n    constructor(uint _amountOfVotesForEnd, uint _candidatesAmount) public {\n        amountOfVotesForEnd = _amountOfVotesForEnd;\n        candidatesAmount = _candidatesAmount;\n    }\n\n    modifier onlyVoter() {\n        require(voters[msg.sender].isExist);\n        _;\n    }\n\n    modifier onlyCandidate() {\n        require(candidates[msg.sender].isExist);\n        _;\n    }\n\n    modifier onlyWhenCandidatesFullfilled() {\n        require(candidatesAddresses.length == candidatesAmount);\n        _;\n    }\n\n    modifier onlyWhenCandidatesNotFullfilled() {\n        require(candidatesAddresses.length < candidatesAmount);\n        _;\n    }\n\n    modifier onlyWithoutRole() {\n        require(!voters[msg.sender].isExist && !candidates[msg.sender].isExist);\n        _;\n    }\n\n    modifier onlyVotingEnded() {\n        require(amountOfVotesForEnd == 0);\n        _;\n    }\n\n    function becomeCandidate() public onlyWithoutRole onlyWhenCandidatesNotFullfilled returns (bool) {\n        candidatesAddresses.push(msg.sender);\n        candidates[msg.sender].isExist = true;\n        return true;\n    }\n\n    function getCandidates() public view returns (address[] memory) {\n        return candidatesAddresses;\n    }\n\n    function becomeVoter() public onlyWithoutRole returns (bool) {\n        votersAddresses.push(msg.sender);\n        voters[msg.sender].isExist = true;\n        return true;\n    }\n\n    function getVotesAmount() public view onlyCandidate returns (uint) {\n        return candidates[msg.sender].votes;\n    }\n\n    function voteForCandidate(address _candidate) onlyWhenCandidatesFullfilled public onlyVoter returns(bool) {\n        if(amountOfVotesForEnd == 0 || voters[msg.sender].candidate != address(0)) return false;\n        voters[msg.sender].candidate = _candidate;\n        candidates[_candidate].votes++;\n        amountOfVotesForEnd--;\n        return true;\n    }\n\n    function getVotesForCandidates(address _candidate) public view onlyVotingEnded returns(uint) {\n        return candidates[_candidate].votes;\n    }\n\n    function checkRole() public view returns (string memory) {\n        if(voters[msg.sender].isExist) return \"voter\";\n        if(candidates[msg.sender].isExist) return \"candidate\";\n        else return \"null\";\n    }\n\n    function getVotedCandidate() public onlyVoter view returns (address) {\n        return voters[msg.sender].candidate;\n    }\n\n    function isVotingEnded() public view returns (bool) {\n        if(amountOfVotesForEnd == 0) return true;\n        return false;\n    }\n\n    function isCondidatesFullfilled() public view returns (bool) {\n        if(candidatesAddresses.length == candidatesAmount) return true;\n        return false;\n    }\n\n    function getVotingResult() public view onlyVotingEnded returns (address[] memory, uint[] memory) {\n        uint[] memory candidateVotes = new uint[](candidatesAddresses.length);\n\n        for(uint i = 0; i < candidatesAddresses.length; i++) {\n            candidateVotes[i] = candidates[candidatesAddresses[i]].votes;\n        }\n\n        return (candidatesAddresses, candidateVotes);\n    }\n}\n",
  "sourcePath": "/Users/egorpodgajskij/workflow/etherium_voting_dapp/contracts/VotingApp.sol",
  "compiler": {
    "name": "solc",
    "version": "0.5.0+commit.1d4f565a.Emscripten.clang"
  },
  "schemaVersion": "3.0.2",
  "updatedAt": "2019-10-02T09:38:11.882Z",
  "devdoc": {
    "methods": {}
  },
  "userdoc": {
    "methods": {}
  }
}